:020000020000FC
:1000000000C0239A249A259A3A9A429A3B9A439A94
:100010002098289A0FE00AB900EF0BB9F1E0EFE65B
:10002000CFE0C193C5E0C083D1E0CFE6899147EF2F
:100030005BEF6DEF7EEF4BB9000000004F9B28C0D7
:100040004E9B2AC04D9B2CC04C9B2EC05BB9000020
:1000500000004F9B2DC04E9B2FC04D9B31C04C9B31
:1000600033C06BB9000000004F9B34C04E9B36C0BC
:100070004D9B38C04C9B3AC07BB9000000004F9BA1
:1000800039C04E9B3BC04D9B3DC04C9B3FC044C0C4
:100090008730F1F049C0CBCF8430D1F045C0C7CF15
:1000A0008130B1F041C0C3CF8A3091F03DC0BFCFA5
:1000B000883071F039C0BBCF853051F035C0B7CF33
:1000C000823031F031C0B3CF803011F02DC0AFCFCE
:1000D0000C948E00893011F127C0A9CF8630F1F041
:1000E00023C0A5CF8330D1F01FC0A1CF8B30B1F09A
:1000F0001BC09DCF8F3091F017C099CF8E3071F01B
:1001000013C095CF8D3051F00FC091CF8C3031F0AE
:100110000BC08DCF09C08BCFF89489CF88819A9579
:1001200090FF4398429883CF429A81CF000000000D
:1001300000001C1E0E0C0C1C121004121212121CB9
:10014000041012121C100416121C121004121212A7
:10015000121E0E0C0C12001C12121C121200000CAB
:10016000121212120C00552740FD5FEF889440FDDB
:1001700008945427507760E760954623452B4795B0
:10018000089527E001E00F9300E019E00E943B0191
:100190001A95E1F711E0042F0E943B011A95D9F757
:1001A0000F910E94ED00000F2A9569F7089527E04E
:1001B00001E00F9300E01AE00E9420011A95E1F798
:1001C00016E005910E943B011A95D9F70F910E9404
:1001D000ED00000F2A9569F708950F932B9807FDFE
:1001E0002B9A2D982D9A2B9806FD2B9A2D982D9AA7
:1001F0002B9805FD2B9A2D982D9A2B9804FD2B9A60
:100200002D982D9A2B9803FD2B9A2D982D9A2B988B
:1002100002FD2B9A2D982D9A2B9801FD2B9A2D9843
:100220002D9A2B9800FD2B9A2D982D9A2B982C9A6D
:100230000FEF015011F00000FCCF2C980F910895A2
:100240002B9800FD2B9A2D982D9A2B9801FD2B9A17
:100250002D982D9A2B9802FD2B9A2D982D9A2B983C
:1002600003FD2B9A2D982D9A2B9804FD2B9A2D98EF
:100270002D9A2B9808952B9800FD2B9A2D982D9A46
:100280002B9801FD2B9A2D982D9A2B9802FD2B9AD5
:100290002D982D9A2B9803FD2B9A2D982D9A2B98FB
:1002A00004FD2B9A2D982D9A2B9805FD2B9A2D98AD
:1002B0002D9A2B9806FD2B9A2D982D9A2B9807FD99
:1002C0002B9A2D982D9A2B98089500010F01000C60
:1002D000121212120C0000040C1404041F0000057A
:00000001FF
