:020000020000FC
:0200000020C01E
:100040007BC1239A249A259A3A9A429A3B9A439AD8
:100050002098289A0FE00AB900EF0BB940E04093CE
:10006000800045E0409381001CED109384000BE07C
:100070000093850004E000936F007894F1E0E3EBD7
:10008000C1E0C193D1E0C3EB899191E0A92FFFCFEB
:1000900047EF5BEF6DEF7EEF4BB9000000004F9B29
:1000A00028C04E9B29C04D9B2DC04C9B31C05BB9D5
:1000B000000000004F9B2FC04E9B30C04D9B31C0B5
:1000C0004C9B35C06BB9000000004F9B42C04E9B5B
:1000D00043C04D9B44C04C9B48C07BB9000000000E
:1000E0004F9B46C04E9B47C04D9B48C04C9B49C050
:1000F0004CC08730F9F04FC01FC04E9BFDCF8430FD
:10010000C9F049C019C04D9BFDCF813099F043C063
:100110008A3081F040C0883069F03DC0853051F0B0
:100120003AC00AC04D9BFDCF823021F034C08030F0
:1001300009F031C00C94C6000F931F930FEF00001D
:1001400014E000001A95E9F70A95C9F71F910F917D
:1001500008958930D9F01FC08630C1F01CC0ECCFA3
:100160004D9BFDCF833091F016C08B3079F013C0DA
:100170008F3061F010C08E3049F00DC08D3031F0FD
:100180000AC08C3019F007C006C008958991AA955D
:1001900021F042980895429A01C04398D1E0C3EB00
:1001A0008991A92F08950000000000001C1E0E0C6C
:1001B0000C1C121004121212121C041012121C1029
:1001C0000416121C121004121212121E0E0C0C1223
:1001D000EE00F200F600FA00FE00EE00001C121223
:1001E0001C121200000C121212120C00000C121041
:1001F00016120C00000E040404040E00001E101C55
:1002000010101E0027E001E00F9300E01AE00E94AA
:1002100057011A95E1F7D1E0C0ED16E0F991E991A7
:1002200031972F932850219531962A95E9F72F91F0
:1002300004910E9457011A9589F70F910E94240199
:10024000000F2A9509F708950F932B9807FD2B9A15
:100250002D982D9A2B9806FD2B9A2D982D9A2B9838
:1002600005FD2B9A2D982D9A2B9804FD2B9A2D98ED
:100270002D9A2B9803FD2B9A2D982D9A2B9802FDE1
:100280002B9A2D982D9A2B9801FD2B9A2D982D9A0B
:100290002B9800FD2B9A2D982D9A2B982C9A0FEFC6
:1002A000015011F00000FCCF2C980F9108952B986D
:1002B00000FD2B9A2D982D9A2B9801FD2B9A2D98A5
:1002C0002D9A2B9802FD2B9A2D982D9A2B9803FD91
:1002D0002B9A2D982D9A2B9804FD2B9A2D982D9AB8
:1002E0002B9808952B9800FD2B9A2D982D9A2B98DA
:1002F00001FD2B9A2D982D9A2B9802FD2B9A2D9863
:100300002D9A2B9803FD2B9A2D982D9A2B9804FD4E
:100310002B9A2D982D9A2B9805FD2B9A2D982D9A76
:100320002B9806FD2B9A2D982D9A2B9807FD2B9A2A
:100330002D982D9A2B9808950F931F9317EF1093D4
:10034000840002EC009385001F910F91329AA0DE89
:10035000189500010F01000C121212120C0000047B
:080360000C1404041F00000549
:00000001FF
