:020000020000FC
:1000000000C0239A249A259AF0E0E4E10E941F00A0
:100010000C9404000000000000001C1E0E0C0C1CC0
:10002000121004121212121C041012121C100416C8
:10003000121C121004121212121E0E0C0C1227E0C7
:1000400001E00F9300E01AE00E9468001A95E1F7C2
:1000500016E005910E9468001A95D9F70F910E9449
:100060003500000F2A9569F708950F932B9807FD27
:100070002B9A2D982D9A2B9806FD2B9A2D982D9A18
:100080002B9805FD2B9A2D982D9A2B9804FD2B9AD1
:100090002D982D9A2B9803FD2B9A2D982D9A2B98FD
:1000A00002FD2B9A2D982D9A2B9801FD2B9A2D98B5
:1000B0002D9A2B9800FD2B9A2D982D9A2B982C9ADF
:1000C0000FEF015011F00000FCCF2C980F91089514
:1000D0002B9800FD2B9A2D982D9A2B9801FD2B9A89
:1000E0002D982D9A2B9802FD2B9A2D982D9A2B98AE
:1000F00003FD2B9A2D982D9A2B9804FD2B9A2D9861
:100100002D9A2B98089500010F01000C1212121263
:0A0110000C0000040C1404041F008E
:00000001FF
