:020000020000FC
:0200000020C01E
:1000400037C1239A249A259A3A9A429A3B9A439A1C
:100050002098289A0FE00AB900EF0BB940E04093CE
:10006000800045E0409381001CED109384000BE07C
:100070000093850004E000936F007894F1E0ECE3D6
:10008000859191E0692E262DC0E0D1E0ECE3F1E00E
:1000900000E11591302F3051319536191CF050E1A7
:1000A000588301C0188321960A9599F70E94A600EB
:1000B000FDCFFCCF000C12161A120C0000040C1419
:1000C00004040E00000C120204081E00000C1204AE
:1000D00002120C0000040C141E040400001E101C6C
:1000E00002120C00000C101C12120C00001E020464
:1000F00008080800000C120C12120C00000C12125E
:100100000E020C00000C12121E121200001C121C17
:1001100012121C00000C121010120C00001C121203
:1001200012121C00001E101C10101E00001E101CBD
:10013000101010000000000000000000020A0C0473
:100140000001070B03040A0F050E01060F931F930E
:100150002F935F9311E007E0C0E1D1E020E1F0E0F0
:10016000E4EB1124E00FF11D2A90220C220C220C4A
:10017000E20DF11DC89555E02B98079408F42B9AD1
:100180002D982D9A5A95C1F72A9549F7889458E0E9
:100190002B98179508F42B9A2D982D9A5A95C1F7FC
:1001A0002C9A5FEF00005A95E9F72C980A95A1F672
:1001B0005F912F911F910F91089547EF5BEF6DEFC6
:1001C0007EEF4BB9000000004F9B28C04E9B29C01A
:1001D0004D9B2AC04C9B2BC05BB9000000004F9B7D
:1001E00029C04E9B2AC04D9B2BC04C9B2CC06BB989
:1001F000000000004F9B2CC04E9B2DC04D9B2EC07D
:100200004C9B2FC07BB9000000004F9B2DC04E9B24
:100210002EC04D9B2FC04C9B30C033C08730B1F0F7
:100220003AC0843099F037C0813081F034C08A30D0
:1002300069F031C0883051F02EC0853039F02BC0C4
:10024000823021F028C0803009F025C00C94420192
:100250008930C1F020C08630A9F01DC0833091F0F4
:100260001AC08B3079F017C08F3061F014C08E3017
:1002700049F011C08D3031F00EC08C3019F00BC038
:100280000AC015C0F1E0ECE3E60DF11D849169169A
:1002900029F063940CC091E0439A02C0439893956F
:1002A000F1E0ECE385919F9391E0692E9F91089591
:1002B0000F9343B040FA3EF401E6009384000BED47
:1002C0000093850006C007EF0093840002EC0093C2
:1002D00085000F91329A439A429B6FDFC0E0D1E0D4
:1002E000ECE3F1E000E11591302F305131953619F2
:1002F0001CF050E1588301C0188321960A9599F7A4
:0203000018954E
:00000001FF
