:020000020000FC
:1000000000C0239A249A259A3A9A429A3B9A439A94
:100010002098289A0FE00AB900EF0BB9F1E0E6E664
:10002000C1E0C193C2E0C193D1E0C6E6899192E0FC
:10003000A92F47EF5BEF6DEF7EEF4BB9000000009B
:100040004F9B28C04E9B29C04D9B2AC04C9B2BC068
:100050005BB9000000004F9B29C04E9B2AC04D9BFE
:100060002BC04C9B2CC06BB9000000004F9B2CC0D8
:100070004E9B2DC04D9B2EC04C9B2FC07BB90000CA
:1000800000004F9B2DC04E9B2EC04D9B2FC04C9B04
:1000900030C033C08730B1F037C0843099F034C0FD
:1000A000813081F031C08A3069F02EC0883051F043
:1000B0002BC0853039F028C0823021F025C0803037
:1000C00009F022C00C947F008930C9F01DC0863031
:1000D000B1F01AC0833099F017C08B3081F014C092
:1000E0008F3069F011C08E3051F00EC08D3039F074
:1000F0000BC08C3021F008C007C0F8949ACF8991CA
:10010000AA9529F0429895CF429A439A01C0439804
:10011000D1E0C6E68991A92F8CCF00000000000035
:100120001C1E0E0C0C1C121004121212121C0410B5
:1001300012121C100416121C121004121212121E9B
:100140000E0C0C12001C12121C121200000C1212C7
:1001500012120C00552740FD5FEF889440FD089473
:100160005427507760E760954623452B47950895BF
:1001700027E001E00F9300E019E00E9432011A9598
:10018000E1F711E0042F0E9432011A95D9F70F917F
:100190000E94E400000F2A9569F7089527E001E026
:1001A0000F9300E01AE00E9417011A95E1F716E09C
:1001B00005910E9432011A95D9F70F910E94E4002F
:1001C000000F2A9569F708950F932B9807FD2B9A36
:1001D0002D982D9A2B9806FD2B9A2D982D9A2B98B9
:1001E00005FD2B9A2D982D9A2B9804FD2B9A2D986E
:1001F0002D9A2B9803FD2B9A2D982D9A2B9802FD62
:100200002B9A2D982D9A2B9801FD2B9A2D982D9A8B
:100210002B9800FD2B9A2D982D9A2B982C9A0FEF46
:10022000015011F00000FCCF2C980F9108952B98ED
:1002300000FD2B9A2D982D9A2B9801FD2B9A2D9825
:100240002D9A2B9802FD2B9A2D982D9A2B9803FD11
:100250002B9A2D982D9A2B9804FD2B9A2D982D9A38
:100260002B9808952B9800FD2B9A2D982D9A2B985A
:1002700001FD2B9A2D982D9A2B9802FD2B9A2D98E3
:100280002D9A2B9803FD2B9A2D982D9A2B9804FDCF
:100290002B9A2D982D9A2B9805FD2B9A2D982D9AF7
:1002A0002B9806FD2B9A2D982D9A2B9807FD2B9AAB
:1002B0002D982D9A2B98089500010F01000C121211
:0E02C00012120C0000040C1404041F000005B0
:00000001FF
