:020000020000FC
:0200000020C01E
:1000400087C1239A249A259A3A9A429A3B9A439ACC
:100050002098289A0FE00AB900EF0BB940E04093CE
:10006000800044E04093810000E00093840000E0C1
:100070000093850001E000936F007894F1E0EEEBCF
:10008000C1E0C193C2E0C193C3E0C193C4E0C19396
:10009000D1E0CEEB899194E0A92F47EF5BEF6DEFB4
:1000A0007EEF4BB9000000004F9B28C04E9B29C03B
:1000B0004D9B2DC04C9B31C05BB9000000004F9B95
:1000C0002FC04E9B30C04D9B31C04C9B35C06BB98F
:1000D000000000004F9B42C04E9B43C04D9B44C05C
:1000E0004C9B48C07BB9000000004F9B46C04E9B14
:1000F00047C04D9B48C04C9B49C04CC08730F9F06D
:1001000050C01FC04E9BFDCF8430C9F04AC019C0FB
:100110004D9BFDCF813099F044C08A3081F041C0C1
:10012000883069F03EC0853051F03BC00AC04D9B1D
:10013000FDCF823021F035C0803009F032C00C9400
:10014000CC000F931F930FEF000014E000001A95EE
:10015000E9F70A95C9F71F910F9108958930E1F0E9
:1001600020C08630C9F01DC0ECCF4D9BFDCF833041
:1001700099F017C08B3081F014C08F3069F011C036
:100180008E3051F00EC08D3039F00BC08C3021F024
:1001900008C007C0F89481CF8991AA9521F04298B0
:1001A0007CCF429A01C04398D1E0CEEB8991A92F30
:1001B00074CF0000000000001C1E0E0C0C1C12105E
:1001C00004121212121C041012121C100416121C1B
:1001D000121004121212121E0E0C0C12001C12121B
:1001E0001C121200000C121212120C00552740FDB6
:1001F0005FEF889440FD08945427507760E760953E
:100200004623452B4795089527E001E00F9300E032
:1002100019E00E947E011A95E1F711E0042F0E9477
:100220007E011A95D9F70F910E943001000F2A958F
:1002300069F7089527E001E00F9300E01AE00E94BB
:1002400063011A95E1F716E005910E947E011A9567
:10025000D9F70F910E943001000F2A9569F7089590
:100260000F932B9807FD2B9A2D982D9A2B9806FD0E
:100270002B9A2D982D9A2B9805FD2B9A2D982D9A17
:100280002B9804FD2B9A2D982D9A2B9803FD2B9AD1
:100290002D982D9A2B9802FD2B9A2D982D9A2B98FC
:1002A00001FD2B9A2D982D9A2B9800FD2B9A2D98B5
:1002B0002D9A2B982C9A0FEF015011F00000FCCFD3
:1002C0002C980F9108952B9800FD2B9A2D982D9A1C
:1002D0002B9801FD2B9A2D982D9A2B9802FD2B9A85
:1002E0002D982D9A2B9803FD2B9A2D982D9A2B98AB
:1002F00004FD2B9A2D982D9A2B9808952B9800FD8C
:100300002B9A2D982D9A2B9801FD2B9A2D982D9A8A
:100310002B9802FD2B9A2D982D9A2B9803FD2B9A42
:100320002D982D9A2B9804FD2B9A2D982D9A2B9869
:1003300005FD2B9A2D982D9A2B9806FD2B9A2D981A
:100340002D9A2B9807FD2B9A2D982D9A2B9808956E
:100350000F931F931CED109384000BE00093850016
:100360001F910F91329A189500010F01000C121283
:0E03700012120C0000040C1404041F000005FF
:00000001FF
