:020000020000FC
:0200000020C01E
:1000400075C1239A249A259A3A9A429A3B9A439ADE
:100050002098289A0FE00AB900EF0BB940E04093CE
:10006000800045E0409381001CED109384000BE07C
:100070000093850004E000936F007894F1E0EDEACE
:10008000C1E0C193C2E0C193C3E0C193C4E0C19396
:10009000D1E0CDEA899194E0A92FFFCF47EF5BEF44
:1000A0006DEF7EEF4BB9000000004F9B28C04E9BC8
:1000B00029C04D9B2AC04C9B2BC05BB9000000009F
:1000C0004F9B29C04E9B2AC04D9B2BC04C9B2CC0E4
:1000D0006BB9000000004F9B39C04E9B3AC04D9B4E
:1000E0003BC04C9B3CC07BB9000000004F9B3AC01A
:1000F0004E9B3BC04D9B3CC04C9B3DC040C087309D
:10010000B1F043C0843099F040C0813081F03DC0EF
:100110008A3069F03AC0883051F037C0853039F004
:1001200034C0823021F031C0803009F02EC00C94F0
:10013000C0000F931F930FEF000014E000001A950A
:10014000E9F70A95C9F71F910F9108958930C1F019
:100150001CC08630A9F019C0833091F016C08B30D6
:1001600079F013C08F3061F010C08E3049F00DC0AF
:100170008D3031F00AC08C3019F007C006C00895E8
:100180008991AA9521F042980895429A01C0439816
:10019000D1E0CDEA8991A92F089500000000000068
:1001A0001C1E0E0C0C1C121004121212121C041035
:1001B00012121C100416121C121004121212121E1B
:1001C0000E0C0C12E800EC00F000F400F800E8005F
:1001D000001C12121C121200000C121212120C003F
:1001E000000C121016120C00000E040404040E0081
:1001F000001E101C10101E0027E001E00F9300E00D
:100200001AE00E9451011A95E1F7D1E0C4EC16E022
:10021000F991E99131972F932850219531962A959C
:10022000E9F72F9104910E9451011A9589F70F91D6
:100230000E941E01000F2A9509F708950F932B982D
:1002400007FD2B9A2D982D9A2B9806FD2B9A2D9809
:100250002D9A2B9805FD2B9A2D982D9A2B9804FDFD
:100260002B9A2D982D9A2B9803FD2B9A2D982D9A29
:100270002B9802FD2B9A2D982D9A2B9801FD2B9AE5
:100280002D982D9A2B9800FD2B9A2D982D9A2B980E
:100290002C9A0FEF015011F00000FCCF2C980F9119
:1002A00008952B9800FD2B9A2D982D9A2B9801FDDF
:1002B0002B9A2D982D9A2B9802FD2B9A2D982D9ADA
:1002C0002B9803FD2B9A2D982D9A2B9804FD2B9A91
:1002D0002D982D9A2B9808952B9800FD2B9A2D98E8
:1002E0002D9A2B9801FD2B9A2D982D9A2B9802FD73
:1002F0002B9A2D982D9A2B9803FD2B9A2D982D9A99
:100300002B9804FD2B9A2D982D9A2B9805FD2B9A4E
:100310002D982D9A2B9806FD2B9A2D982D9A2B9877
:1003200007FD2B9A2D982D9A2B9808950F931F93C4
:1003300017EF1093840002EC009385001F910F913A
:10034000329AACDE189500010F01000C1212121245
:0C0350000C0000040C1404041F00000545
:00000001FF
