:020000020000FC
:1000000000C0239A249A259A3A9A429A3B9A439A94
:100010002098289A0FE00AB900EF0BB9F0E0EAE95E
:1000200047EF5BEF6DEF7EEF4BB9000000004F9B99
:1000300028C04E9B29C04D9B2BC04C9B29C05BB94F
:10004000000000004F9B22C04E9B22C04D9B20C051
:100050004C9B1EC06BB9000000004F9B19C04E9B0B
:1000600017C04D9B15C04C9B13C07BB9000000000E
:100070004F9B0EC04E9B0CC04D9B0AC04C9B08C0B2
:1000800008C042984398CACF4298C8CF4398C6CF79
:10009000C5CF429A439AF894C1CF000000000000F7
:1000A0001C1E0E0C0C1C121004121212121C041036
:1000B00012121C100416121C121004121212121E1C
:1000C0000E0C0C12001C12121C121200000C121248
:1000D00012120C00552740FD5FEF889440FD0894F4
:1000E0005427507760E760954623452B4795089540
:1000F00027E001E00F9300E019E00E94F2001A955A
:10010000E1F711E0042F0E94F2001A95D9F70F9140
:100110000E94A400000F2A9569F7089527E001E0E6
:100120000F9300E01AE00E94D7001A95E1F716E05D
:1001300005910E94F2001A95D9F70F910E94A40030
:10014000000F2A9569F708950F932B9807FD2B9AB6
:100150002D982D9A2B9806FD2B9A2D982D9A2B9839
:1001600005FD2B9A2D982D9A2B9804FD2B9A2D98EE
:100170002D9A2B9803FD2B9A2D982D9A2B9802FDE2
:100180002B9A2D982D9A2B9801FD2B9A2D982D9A0C
:100190002B9800FD2B9A2D982D9A2B982C9A0FEFC7
:1001A000015011F00000FCCF2C980F9108952B986E
:1001B00000FD2B9A2D982D9A2B9801FD2B9A2D98A6
:1001C0002D9A2B9802FD2B9A2D982D9A2B9803FD92
:1001D0002B9A2D982D9A2B9804FD2B9A2D982D9AB9
:1001E0002B9808952B9800FD2B9A2D982D9A2B98DB
:1001F00001FD2B9A2D982D9A2B9802FD2B9A2D9864
:100200002D9A2B9803FD2B9A2D982D9A2B9804FD4F
:100210002B9A2D982D9A2B9805FD2B9A2D982D9A77
:100220002B9806FD2B9A2D982D9A2B9807FD2B9A2B
:100230002D982D9A2B98089500010F01000C121291
:0C02400012120C0000040C1404041F0037
:00000001FF
