:020000020000FC
:0200000020C01E
:1000400079C1239A249A259A3A9A429A3B9A439ADA
:100050002098289A0FE00AB900EF0BB940E04093CE
:10006000800045E0409381001CED109384000BE07C
:100070000093850004E000936F007894F1E0EDEBCD
:10008000C1E0C193C2E0C193C3E0C193C4E0C19396
:10009000C5E0C193C6E0C193D1E0CDEB899191E079
:1000A000A92FFFCF47EF5BEF6DEF7EEF4BB900005D
:1000B00000004F9B28C04E9B29C04D9B2AC04C9BE3
:1000C0002BC05BB9000000004F9B29C04E9B2AC08B
:1000D0004D9B2BC04C9B2CC06BB9000000004F9B6C
:1000E00039C04E9B3AC04D9B3BC04C9B3CC07BB93A
:1000F000000000004F9B3AC04E9B3BC04D9B3CC054
:100100004C9B3DC040C08730B1F042C0843099F074
:100110003FC0813081F03CC08A3069F039C08830FE
:1001200051F036C0853039F033C0823021F030C014
:10013000803009F02DC00C94C4000F931F930FEF73
:10014000000014E000001A95E9F70A95C9F71F911D
:100150000F9108958930C1F01BC08630A9F018C0F6
:10016000833091F015C08B3079F012C08F3061F080
:100170000FC08E3049F00CC08D3031F009C08C308A
:1001800019F006C005C008958991AA9519F008953F
:1001900091E002C043989395D1E0CDEB8991A92FCE
:1001A00008950000000000001C1E0E0C0C1C121014
:1001B00004121212121C041012121C100416121C2B
:1001C000121004121212121E0E0C0C12EC00F0008F
:1001D000F400F800FC00EC00001C12121C121200CB
:1001E000000C121212120C00000C121016120C004D
:1001F000000E040404040E00001E101C10101E004B
:1002000027E001E00F9300E01AE00E9455011A95E3
:10021000E1F7D1E0CCEC16E0F991E99131972F9319
:100220002850219531962A95E9F72F9104910E9443
:1002300055011A9589F70F910E942201000F2A9506
:1002400009F708950F932B9807FD2B9A2D982D9A57
:100250002B9806FD2B9A2D982D9A2B9805FD2B9AFD
:100260002D982D9A2B9804FD2B9A2D982D9A2B982A
:1002700003FD2B9A2D982D9A2B9802FD2B9A2D98E1
:100280002D9A2B9801FD2B9A2D982D9A2B9800FDD5
:100290002B9A2D982D9A2B982C9A0FEF015011F034
:1002A0000000FCCF2C980F9108952B9800FD2B9AFD
:1002B0002D982D9A2B9801FD2B9A2D982D9A2B98DD
:1002C00002FD2B9A2D982D9A2B9803FD2B9A2D9891
:1002D0002D9A2B9804FD2B9A2D982D9A2B980895E2
:1002E0002B9800FD2B9A2D982D9A2B9801FD2B9A77
:1002F0002D982D9A2B9802FD2B9A2D982D9A2B989C
:1003000003FD2B9A2D982D9A2B9804FD2B9A2D984E
:100310002D9A2B9805FD2B9A2D982D9A2B9806FD3A
:100320002B9A2D982D9A2B9807FD2B9A2D982D9A64
:100330002B9808950F931F9303B000FA3EF411E633
:10034000109384000BED0093850007C017EF109306
:10035000840002EC0093850000C01F910F91329A37
:10036000439AA0DE189500010F01000C1212121220
:0C0370000C0000040C1404041F00000525
:00000001FF
