:020000020000FC
:1000000000C0239A249A259A0E943200FDCF000056
:10001000000000001C1E0E0C0C1C12100412121208
:10002000121C041012121C100416121C12100412BE
:100030001212121E0E0C0C1200010203001C1212EE
:100040001C121200000C121212120C00000C1210E2
:1000500016120C00000E040404040E00001E101CF6
:1000600010101E0027E0332701E00F9300E01FE08F
:100070000E9491001A95E1F7F0E0E8E3FF93EF9317
:1000800011E0EF91FF914591FF93EF93F0E0ECE3E6
:10009000440F440F440FE40F08F4F395E30F08F402
:1000A000F39504910E9491001A9559F70F910E94BF
:1000B0005E00000F33952A95C1F608950F932B9893
:1000C00007FD2B9A2D982D9A2B9806FD2B9A2D988B
:1000D0002D9A2B9805FD2B9A2D982D9A2B9804FD7F
:1000E0002B9A2D982D9A2B9803FD2B9A2D982D9AAB
:1000F0002B9802FD2B9A2D982D9A2B9801FD2B9A67
:100100002D982D9A2B9800FD2B9A2D982D9A2B988F
:100110002C9A0FEF015011F00000FCCF2C980F919A
:1001200008952B9800FD2B9A2D982D9A2B9801FD60
:100130002B9A2D982D9A2B9802FD2B9A2D982D9A5B
:100140002B9803FD2B9A2D982D9A2B9804FD2B9A12
:100150002D982D9A2B9808952B9800FD2B9A2D9869
:100160002D9A2B9801FD2B9A2D982D9A2B9802FDF4
:100170002B9A2D982D9A2B9803FD2B9A2D982D9A1A
:100180002B9804FD2B9A2D982D9A2B9805FD2B9AD0
:100190002D982D9A2B9806FD2B9A2D982D9A2B98F9
:1001A00007FD2B9A2D982D9A2B98089500010F0189
:1001B000000C121212120C0000040C1404041F0094
:0201C000000538
:00000001FF
