:020000020000FC
:1000000000C0239A249A259A3FEF43ED13E01F93F3
:100010000E9416003F7F47FD3060330F1F911A95F5
:10002000B1F70E943A00FDCF0C940400552740FD23
:100030005FEF5427507760E760954623452B469540
:10004000487F40FD4760089527E001E00F930027B7
:1000500019E00E9483001A95E1F711E0032F0E9436
:1000600083001A95D9F70F910E945000000F2A952E
:1000700069F7089527E001E00F93002719E00E9437
:1000800083001A95E1F711E0042F0E9483001A956E
:10009000D9F70F910E945000000F2A9569F7089533
:1000A0000F932B9807FD2B9A2D982D9A2B9806FDD0
:1000B0002B9A2D982D9A2B9805FD2B9A2D982D9AD9
:1000C0002B9804FD2B9A2D982D9A2B9803FD2B9A93
:1000D0002D982D9A2B9802FD2B9A2D982D9A2B98BE
:1000E00001FD2B9A2D982D9A2B9800FD2B9A2D9877
:1000F0002D9A2B982C9A0FEF015011F00000FCCF95
:100100002C980F9108952B9800FD2B9A2D982D9ADD
:100110002B9801FD2B9A2D982D9A2B9802FD2B9A46
:100120002D982D9A2B9803FD2B9A2D982D9A2B986C
:1001300004FD2B9A2D982D9A2B9805FD2B9A2D981E
:100140002D9A2B9806FD2B9A2D982D9A2B9807FD0A
:0A0150002B9A2D982D9A2B980895F4
:00000001FF
