:020000020000FC
:0200000020C01E
:100040002DC133243094239A249A259A3A9A429ABD
:100050003B9A439A2098289A0FE00AB900EF0BB90F
:1000600040E04093800045E04093810001E600932A
:1000700084000BED0093850004E000936F007894FA
:10008000F1E0E8E1859191E018D131FC4DD0FDCF50
:10009000000C12161A120C0000040C1404040E00BA
:1000A000000C120204081E00000C120402120C00C4
:1000B00000040C141E040400001E101C02120C008C
:1000C000000C101C12120C00001E0204080808008C
:1000D000000C120C12120C00000C12120E020C007A
:1000E000000C12121E121200001C121C12121C0014
:1000F000000C121010120C00001C121212121C0024
:10010000001E101C10101E00001E101C10101000ED
:1001100000000000000000000705090D030B0F0997
:100120000F0402000F0D03070F931F932F935F938C
:1001300011E007E0C0E1D1E020E1F0E0E0E91124C6
:10014000E00FF11D2A90220C220C220CE20DF11D71
:10015000C89555E02B98079408F42B9A2D982D9A62
:100160005A95C1F72A9549F7889458E02B98179526
:1001700008F42B9A2D982D9A5A95C1F72C9A5FEF77
:10018000000000000000000000005A95C9F72C98FC
:100190000A9581F65F912F911F910F91089547EF76
:1001A0005BEF6DEF7EEF4BB9000000004F9B28C066
:1001B0004E9B29C04D9B2AC04C9B2BC05BB90000B5
:1001C00000004F9B29C04E9B2AC04D9B2BC04C9BCF
:1001D0002CC06BB9000000004F9B2CC04E9B2DC063
:1001E0004D9B2EC04C9B2FC07BB9000000004F9B45
:1001F0002DC04E9B2EC04D9B2FC04C9B30C032C09B
:100200008730B1F03DC0843099F03AC0813081F040
:1002100037C08A3069F034C0883051F031C0853041
:1002200039F02EC0823021F02BC0803009F028C078
:100230000C9436018930D1F023C08630B9F020C04B
:100240008330A1F01DC08B3089F01AC08F3071F05F
:1002500017C08E3059F014C08D3041F011C08C3071
:1002600029F00EC043B040FA5EF017C04398F1E0A9
:10027000E8E1E60DF11D8491691629F063940DC043
:1002800091E0439A02C0439893953094F1E0E8E1FD
:1002900085919F9391E0692E9F9108950F9311E6A8
:1002A000109384000BED009385000F913324329A54
:1002B000439A429B74DF01D01895C0E0D1E0E8E199
:1002C000F1E000E11591302F30513195391B1CF0D0
:1002D00050E1588301C0188321960A9599F7089533
:00000001FF
