:020000020000FC
:0200000020C01E
:1000400030C133243094239A249A259A3A9A429ABA
:100050003B9A439A2098289A0FE00AB900EF0BB90F
:1000600040E04093800045E04093810001E600932A
:1000700084000BED0093850004E000936F007894FA
:10008000F1E0ECE1859191E0692E262D19D131FC4A
:100090004DD0FDCF000C12161A120C0000040C14E7
:1000A00004040E00000C120204081E00000C1204CE
:1000B00002120C0000040C141E040400001E101C8C
:1000C00002120C00000C101C12120C00001E020484
:1000D00008080800000C120C12120C00000C12127E
:1000E0000E020C00000C12121E121200001C121C38
:1000F00012121C00000C121010120C00001C121224
:1001000012121C00001E101C10101E00001E101CDD
:100110001010100000000000000000000D0A0B0588
:10012000020D090D040D0D0C0B0E09060F931F9304
:100130002F935F9311E007E0C0E1D1E020E1F0E010
:10014000E4E91124E00FF11D2A90220C220C220C6C
:10015000E20DF11DC89555E02B98079408F42B9AF1
:100160002D982D9A5A95C1F72A9549F7889458E009
:100170002B98179508F42B9A2D982D9A5A95C1F71C
:100180002C9A5FEF000000000000000000005A956C
:10019000C9F72C980A9581F65F912F911F910F91C5
:1001A000089547EF5BEF6DEF7EEF4BB90000000065
:1001B0004F9B28C04E9B29C04D9B2AC04C9B2BC0F7
:1001C0005BB9000000004F9B29C04E9B2AC04D9B8D
:1001D0002BC04C9B2CC06BB9000000004F9B2CC067
:1001E0004E9B2DC04D9B2EC04C9B2FC07BB9000059
:1001F00000004F9B2DC04E9B2EC04D9B2FC04C9B93
:1002000030C033C08730B1F03EC0843099F03BC07D
:10021000813081F038C08A3069F035C0883051F0C3
:1002200032C0853039F02FC0823021F02CC08030B0
:1002300009F029C00C9439018930D9F024C08630E6
:10024000C1F021C08330A9F01EC08B3091F01BC0DB
:100250008F3079F018C08E3061F015C08D3049F0C4
:1002600012C08C3031F00FC00EC043B040FA5EF0C7
:1002700017C04398F1E0ECE1E60DF11D8491691699
:1002800029F063940DC091E0439A02C0439893957E
:100290003094F1E0ECE185919F9391E0692E9F917C
:1002A00008950F9307EF0093840002EC00938500FC
:1002B0000F913324329A439A429B73DF01D01895F1
:1002C000C0E0D1E0ECE1F1E000E11591302F3051D8
:1002D0003195391B1CF050E1588301C018832196D9
:0602E0000A9599F708954C
:00000001FF
