:020000020000FC
:0200000020C01E
:10004000BCC0239A249A259A3A9A429A3B9A439A98
:100050002098289A0FE00AB900EF0BB940E04093CE
:10006000800045E0409381001CED109384000BE07C
:100070000093850004E000936F007894F1E0E0E0E5
:1000800001E0019302E0019303E0019304E0019396
:1000900005E0019306E00193D1E0C0E0899191E091
:1000A000A92FFFCF47EF5BEF6DEF7EEF4BB900005D
:1000B00000004F9B28C04E9B29C04D9B2AC04C9BE3
:1000C0002BC05BB9000000004F9B29C04E9B2AC08B
:1000D0004D9B2BC04C9B2CC06BB9000000004F9B6C
:1000E00039C04E9B3AC04D9B3BC04C9B3CC07BB93A
:1000F000000000004F9B3AC04E9B3BC04D9B3CC054
:100100004C9B3DC040C08730B1F042C0843099F074
:100110003FC0813081F03CC08A3069F039C08830FE
:1001200051F036C0853039F033C0823021F030C014
:10013000803009F02DC00C94C4000F931F930FEF73
:10014000000014E000001A95E9F70A95C9F71F911D
:100150000F9108958930C1F01BC08630A9F018C0F6
:10016000833091F015C08B3079F012C08F3061F080
:100170000FC08E3049F00CC08D3031F009C08C308A
:1001800019F006C005C008958991AA9521F0089537
:1001900091E0439A02C043989395D1E0C0E08991E1
:1001A000A92F08950F932B982C9A0FEF015011F05F
:1001B0000000FCCF2C980F9108950F931F9303B06C
:1001C00000FA3EF411E6109384000BED00938500D5
:1001D00007C017EF1093840002EC0093850000C065
:1001E0001F910F91329A429B5DDF189500010F011C
:1001F000000C121212120C0000040C1404041F0054
:020200000005F7
:00000001FF
