:020000020000FC
:0200000020C01E
:1000400034C1239A249A259A3A9A429A3B9A439A1F
:100050002098289A0FE00AB900EF0BB940E04093CE
:10006000800045E0409381001CED109384000BE07C
:100070000093850004E000936F007894F1E0EEE3D4
:10008000859190E0692E6394262DC0E0D1E0EEE3E7
:10009000F1E000E11591302F3051319536191CF007
:1000A00050E1588301C0188321960A9599F70E9460
:1000B000A700FDCFFCCF000C12161A120C00000492
:1000C0000C1404040E00000C120204081E00000CA4
:1000D000120402120C0000040C141E040400001E82
:1000E000101C02120C00000C101C12120C00001E3E
:1000F000020408080800000C120C12120C00000C7C
:1001000012120E020C00000C12121E121200001C21
:10011000121C12121C00000C121010120C00001CF9
:10012000121212121C00001E101C10101E00001EC5
:10013000101C101010000000000000000000020A57
:100140000C040001070B03040A0F050E01060F93B0
:100150001F932F935F9311E007E0C0E1D1E020E10E
:10016000F0E0E6EB1124E00FF11D2A90220C220CA6
:10017000220CE20DF11DC89555E02B98079408F468
:100180002B9A2D982D9A5A95C1F72A9549F788945C
:1001900058E02B98179508F42B9A2D982D9A5A957C
:1001A000C1F72C9A5FEF00005A95E9F72C980A9551
:1001B000A1F65F912F911F910F91089547EF5BEF8B
:1001C0006DEF7EEF4BB9000000004F9B28C04E9BA7
:1001D00029C04D9B2AC04C9B2BC05BB9000000007E
:1001E0004F9B29C04E9B2AC04D9B2BC04C9B2CC0C3
:1001F0006BB9000000004F9B2CC04E9B2DC04D9B47
:100200002EC04C9B2FC07BB9000000004F9B2DC01F
:100210004E9B2EC04D9B2FC04C9B30C033C08730AF
:10022000B1F039C0843099F036C0813081F033C0EC
:100230008A3069F030C0883051F02DC0853039F0F7
:100240002AC0823021F027C0803009F024C00C94ED
:1002500043018930C1F01FC08630A9F01CC0833033
:1002600091F019C08B3079F016C08F3061F013C057
:100270008E3049F010C08D3031F00DC08C3019F047
:100280000AC009C011C0F1E0EEE3E90FF11D84914D
:10029000639421F009C091E0439A02C0439893957A
:1002A000F1E0EEE38591692E08950F9343B040FA93
:1002B0003EF401E6009384000BED0093850006C038
:1002C00007EF0093840002EC009385000F91329AAF
:1002D000439A429B73DFC0E0D1E0EEE3F1E000E13E
:1002E0001591302F3051319536191CF050E158835B
:0C02F00001C0188321960A9599F7189513
:00000001FF
