:020000020000FC
:1000000000C0239A249A259AF0E0E0E20E94490079
:1000100045EE0E9425000E943300FDCF0C940400A1
:100020000000000000001C1E0E0C0C1C121004121C
:100030001212121C041012121C100416121C1210A0
:1000400004121212121E0E0C0C12552740FD5FEF07
:10005000889440FD08945427507760E760954623C4
:10006000452B4795089527E001E00F9300E019E044
:100070000E94AD001A95E1F711E0042F0E94AD0037
:100080001A95D9F70F910E945F00000F2A9569F722
:10009000089527E001E00F9300E01AE00E9492002B
:1000A0001A95E1F716E005910E94AD001A95D9F76F
:1000B0000F910E945F00000F2A9569F708950F9332
:1000C0002B9807FD2B9A2D982D9A2B9806FD2B9A8D
:1000D0002D982D9A2B9805FD2B9A2D982D9A2B98BB
:1000E00004FD2B9A2D982D9A2B9803FD2B9A2D9871
:1000F0002D9A2B9802FD2B9A2D982D9A2B9801FD65
:100100002B9A2D982D9A2B9800FD2B9A2D982D9A8D
:100110002B982C9A0FEF015011F00000FCCF2C9877
:100120000F9108952B9800FD2B9A2D982D9A2B98BE
:1001300001FD2B9A2D982D9A2B9802FD2B9A2D9824
:100140002D9A2B9803FD2B9A2D982D9A2B9804FD10
:100150002B9A2D982D9A2B9808952B9800FD2B9A69
:100160002D982D9A2B9801FD2B9A2D982D9A2B982E
:1001700002FD2B9A2D982D9A2B9803FD2B9A2D98E2
:100180002D9A2B9804FD2B9A2D982D9A2B9805FDCE
:100190002B9A2D982D9A2B9806FD2B9A2D982D9AF7
:0E01A0002B9807FD2B9A2D982D9A2B980895D9
:00000001FF
